:10100000B9EF08F0FF00FF00FACFDDF0FBCFDEF014
:10101000E9CFDFF060ED09F0D8CF2EF0E8CF2FF068
:10102000E0CF30F0FACF31F0FBCF32F0E9CF33F040
:10103000EACF34F0E1CF35F0E2CF36F0D9CF37F058
:10104000DACF38F0F3CF39F0F4CF3AF0F6CF3BF007
:10105000F7CF3CF0F8CF3DF0F5CF3EF09DB09EA02D
:1010600034D09E9015C0CEFF16C0CFFF085005109B
:1010700006100710D8B41DD08CC0D9FF8DC0DAFF80
:101080002A50DF1A0850800A800F08E1000E075C22
:1010900005E1000E065C02E1010E055CD8A015D04A
:1010A000FF0E0526FF0E0622FF0E0722FF0E082266
:1010B0000CD0010E64EC0CF02A50FF0A2C6E8CC090
:1010C000D9FF8DC0DAFF2C50DF169DB89EA82ED018
:1010D000000120EED0F0000110EECEF0E652DE521C
:1010E000DD50E518DFCFE8FFD8B4E718D8A402D068
:1010F0009D981CD000018E0E0001D025D96E0001F4
:10110000000E0001D121DA6EDF503F6E010E0001AA
:10111000D0252C6E000E0001D1212D6E3F0E2C1417
:101120000001D06F0001D16B3FC0ADFF3EC0F5FFA5
:101130003DC0F8FF3CC0F7FF3BC0F6FF3AC0F4FFEC
:1011400039C0F3FF38C0DAFF37C0D9FF36C0E2FF3D
:1011500035C0E1FF34C0EAFF33C0E9FF32C0FBFF16
:1011600031C0FAFF30C0E0FF2FC0E8FF2EC0D8FF2B
:10117000100089EF0BF0FF00FF00FF00FF00FF00F1
:1012000000004B00001F003F003F0034008025001D
:10121000004200850085006E00C012000087000FAC
:10122000010F01DF0060090000130125022502C241
:1012300001B00400002802500450048903804004D7
:101240000801040202040810204080080102010283
:10125000042001020110408003030202040303047E
:101260000404040404040102020101010105050350
:101270000102020000000000010200000000000066
:10128000000000000000000000000000000000005E
:10129000800F810F820F830F840F0000920F930F36
:1012A000940F950F960F0000890F8A0F8B0F8C0FEC
:1012B0008D0F0001020405060000016F7666000034
:1012C0000600EACFE0F0E1CFE1F0E2CFE2F0D9CFE3
:1012D000E3F0DACFE4F0F3CFE5F0F4CFE6F0F6CFC9
:1012E000E7F0F7CFE8F0F8CFE9F0F5CFEAF0F2A4B5
:1012F0003DD0F29401C0ECF002C0EDF003C0EEF07E
:1013000004C0EFF029C0F0F0010E0001EC27000E40
:101310000001ED230001EE230001EF232D0E00015B
:10132000F0277C0E0001F0650DD07D0E0001F05F0E
:10133000010E0001EC27000E0001ED230001EE2359
:101340000001EF23F0C029F0ECC001F0EDC002F085
:10135000EEC003F0EFC004F0010E00017A27000E8A
:1013600000017B2300017C2300017D239DBA9EAAFE
:101370000CD0AECFEBF00101010E416E0101400E29
:10138000406E0001EB514AEC0BF0F2B8F2A201D032
:10139000F292F0B6F0A001D0F090F0B8F0A205D033
:1013A0001850D8B4F2EC09F0F092EAC0F5FFE9C0A9
:1013B000F8FFE8C0F7FFE7C0F6FFE6C0F4FFE5C0BE
:1013C000F3FFE4C0DAFFE3C0D9FFE2C0E2FFE1C00F
:1013D000E1FFE0C0EAFFDFC0E9FFDEC0FBFFDDC0E8
:1013E000FAFF1100000E0001DB6F0A500910D8A4AB
:1013F00007D084EC0CF00009000ED8B4010E04D024
:1014000084EC0CF0426E42500001D96F0001DA6B9F
:101410000001DA51D911D8B46BD084C040F085C036
:1014200041F06EEC0CF0190EE6EC0BF0010E000131
:10143000DC6F1FD086C040F087C041F06EEC0CF02E
:10144000190EE6EC0BF00001DC51FF0A0001D86F29
:1014500084EC0CF00009D8B405D00001DC51000187
:10146000DB1304D00001D8510001DB170001D89034
:10147000DC370001DC67DED788C040F089C041F06E
:101480006EEC0CF0190EE6EC0BF00A500910D8B413
:1014900002D00001DB1F010E0D24426E000E0E2053
:1014A000436E3F0E4216000E43160C50431802E1E5
:1014B0000B504218D8B416D00101000E0D24D96E7D
:1014C0000101010E0E20DA6E0001DBC0DFFF010E0C
:1014D0000D24426E000E0E20436E3F0E42140D6E20
:1014E0000E6A06D0000E0001816F010E0001806FB0
:1014F000120001018D6F01018D51010D730EF32456
:10150000F66E120EF420F76E08000101F5CF8AF195
:1015100001018D51010D3D0EF324F66E120EF420E3
:10152000F76E08000101F5CF8BF101018D51010D1E
:10153000580EF324F66E120EF420F76E0800010127
:10154000F5CF8CF101018C6701D03ED001018A51A9
:10155000D8B404D001018A514EEC0CF001018C5139
:10156000020DA60EF324F66E120EF420F76E09009B
:101570000101F5CF88F10A000101F5CF89F1000ED4
:10158000F2BE010E0101876FF29E010185670DD049
:1015900001018B51FF0A0101866F88C1D9FF89C102
:1015A000DAFF01018651DF1607D088C1D9FF89C152
:1015B000DAFF01018B51DF12010187A101D0F28E08
:1015C000010187B101D0F29E12000101886F010173
:1015D0008851010D3D0EF324F66E120EF420F76EC5
:1015E00008000101F5CF8BF101018851010D580E62
:1015F000F324F66E120EF420F76E08000101F5CF09
:101600008CF101018C6701D044D001018C51020D95
:101610009A0EF324F66E120EF420F76E0900010103
:10162000F5CF89F10A000101F5CF8AF10101846744
:1016300016D0000EF2BE010E0101866FF29E89C126
:10164000D9FF8AC1DAFF01018B51DF12010186A1A6
:1016500001D0F28E010186B101D01AD01AD0000E4D
:10166000F2BE010E0101876FF29E01018B51FF0A4C
:101670000101856F89C1D9FF8AC1DAFF0101855156
:10168000DF16010187A101D0F28E010187B101D0DF
:10169000F29E1200446E20EE40F04050D926415098
:1016A000DA22DECF42F0DDCF43F0010E4226000EFB
:1016B00043223F0E4214456E466A20EE42F04050EF
:1016C000D9264150DA22DE524650DD1845C0E8FFE7
:1016D000D8B4DF18D8B41CD020EE40F04050D92642
:1016E0004150DA22DECF42F0DDCF43F042504024B9
:1016F000D96E43504120DA6E44C0DFFF20EE40F047
:101700004050D9264150DA2245C0DEFF46C0DDFFF9
:10171000120001EE00F0840EEE6AE806FDE100EE34
:1017200060F0780EEE6AE806FDE1496A00EE01F02D
:101730002A0EEE6AE806FDE1160EF66E190EF76E39
:10174000000EF86E00EEF1F010EE08F00900F5CF93
:10175000EEFFE550E150FAE11E0EF66E190EF76E3F
:10176000000EF86E0900F5CF47F00900F5CF48F0FC
:10177000000EF86E000176EF0CF0010E0101856F8E
:101780000D0E79EC0AF0E80E0101846F030E0101E1
:10179000856F000E0101866F000E0101876F31EC2D
:1017A0000CF0000E0101856F0D0E79EC0AF0E80EC9
:1017B0000101846F030E0101856F000E0101866F28
:1017C000000E0101876F31EC0CF01200416E4150A8
:1017D000010D3D0EF324F66E120EF420F76E080094
:1017E000F5CF40F04150010D580EF324F66E120E65
:1017F000F420F76E0800F550020DA60EF324F66EE5
:10180000120EF420F76E0900F5CFD9FF0900F5CFCD
:10181000DAFF4050DF1A1200F28E000EC26E0F0E79
:10182000C16E960EC06E000E806E000E816E000EB0
:10183000826E000E836E000E846E3F0E926E936871
:1018400094689568070E966E9298000E896EC50E84
:10185000D56EF28AF184CB68060ECA6EF28CD08EF9
:101860001200100E0101886F940EE82EFED7882F0B
:10187000FCD700D001018407000E0101855B010146
:10188000865B0101875B01018429D8B48529D8B41E
:101890008629D8B48729D8B41200E3D70101846F10
:1018A0000AD0BD90BD92BD94BD960DD0BA90BA92AB
:1018B000BA94BA9608D001018451010AD8B4F1D77C
:1018C000030AD8B4F3D712002B6E03D09D90CD90AD
:1018D00004D02B50010AD8B4F9D712004006D8A082
:1018E000410641504010D8B41200F8D70CEC0CF06F
:1018F0007DEC0CF0BDEC0BF0FDD7010E0101846F07
:101900000D0EE5EC0AF0120082C0D9FF83C0DAFFA9
:10191000DF5023141200000040001400540001FFA7
:00000001FF
